{
  "_format": "hh-sol-artifact-1",
  "contractName": "SignUp",
  "sourceName": "contracts/Signup.sol",
  "abi": [
    {
      "anonymous": false,
      "inputs": [
        {
          "indexed": false,
          "internalType": "string",
          "name": "name",
          "type": "string"
        },
        {
          "indexed": false,
          "internalType": "address",
          "name": "userAddress",
          "type": "address"
        }
      ],
      "name": "NewUserRegistered",
      "type": "event"
    },
    {
      "inputs": [
        {
          "internalType": "string",
          "name": "name",
          "type": "string"
        }
      ],
      "name": "signUp",
      "outputs": [],
      "stateMutability": "nonpayable",
      "type": "function"
    },
    {
      "inputs": [
        {
          "internalType": "address",
          "name": "",
          "type": "address"
        }
      ],
      "name": "users",
      "outputs": [
        {
          "internalType": "string",
          "name": "name",
          "type": "string"
        },
        {
          "internalType": "address",
          "name": "userAddress",
          "type": "address"
        },
        {
          "internalType": "uint256",
          "name": "timestamp",
          "type": "uint256"
        }
      ],
      "stateMutability": "view",
      "type": "function"
    }
  ],
  "bytecode": "0x608060405234801561001057600080fd5b50610ab3806100206000396000f3fe608060405234801561001057600080fd5b50600436106100365760003560e01c8063a87430ba1461003b578063adcfb4fc1461006d575b600080fd5b610055600480360381019061005091906103f6565b610089565b604051610064939291906104db565b60405180910390f35b6100876004803603810190610082919061064e565b61015b565b005b60006020528060005260406000206000915090508060000180546100ac906106c6565b80601f01602080910402602001604051908101604052809291908181526020018280546100d8906106c6565b80156101255780601f106100fa57610100808354040283529160200191610125565b820191906000526020600020905b81548152906001019060200180831161010857829003601f168201915b5050505050908060010160009054906101000a900473ffffffffffffffffffffffffffffffffffffffff16908060020154905083565b600081511161019f576040517f08c379a000000000000000000000000000000000000000000000000000000000815260040161019690610743565b60405180910390fd5b600073ffffffffffffffffffffffffffffffffffffffff166000803373ffffffffffffffffffffffffffffffffffffffff1673ffffffffffffffffffffffffffffffffffffffff16815260200190815260200160002060010160009054906101000a900473ffffffffffffffffffffffffffffffffffffffff1673ffffffffffffffffffffffffffffffffffffffff161461026f576040517f08c379a0000000000000000000000000000000000000000000000000000000008152600401610266906107af565b60405180910390fd5b60405180606001604052808281526020013373ffffffffffffffffffffffffffffffffffffffff168152602001428152506000803373ffffffffffffffffffffffffffffffffffffffff1673ffffffffffffffffffffffffffffffffffffffff16815260200190815260200160002060008201518160000190816102f3919061097b565b5060208201518160010160006101000a81548173ffffffffffffffffffffffffffffffffffffffff021916908373ffffffffffffffffffffffffffffffffffffffff160217905550604082015181600201559050507fcbbdf392a32b320dc0cf2cd26a724e097ca07f6dfabb063504f86a1d162648548133604051610379929190610a4d565b60405180910390a150565b6000604051905090565b600080fd5b600080fd5b600073ffffffffffffffffffffffffffffffffffffffff82169050919050565b60006103c382610398565b9050919050565b6103d3816103b8565b81146103de57600080fd5b50565b6000813590506103f0816103ca565b92915050565b60006020828403121561040c5761040b61038e565b5b600061041a848285016103e1565b91505092915050565b600081519050919050565b600082825260208201905092915050565b60005b8381101561045d578082015181840152602081019050610442565b60008484015250505050565b6000601f19601f8301169050919050565b600061048582610423565b61048f818561042e565b935061049f81856020860161043f565b6104a881610469565b840191505092915050565b6104bc816103b8565b82525050565b6000819050919050565b6104d5816104c2565b82525050565b600060608201905081810360008301526104f5818661047a565b905061050460208301856104b3565b61051160408301846104cc565b949350505050565b600080fd5b600080fd5b7f4e487b7100000000000000000000000000000000000000000000000000000000600052604160045260246000fd5b61055b82610469565b810181811067ffffffffffffffff8211171561057a57610579610523565b5b80604052505050565b600061058d610384565b90506105998282610552565b919050565b600067ffffffffffffffff8211156105b9576105b8610523565b5b6105c282610469565b9050602081019050919050565b82818337600083830152505050565b60006105f16105ec8461059e565b610583565b90508281526020810184848401111561060d5761060c61051e565b5b6106188482856105cf565b509392505050565b600082601f83011261063557610634610519565b5b81356106458482602086016105de565b91505092915050565b6000602082840312156106645761066361038e565b5b600082013567ffffffffffffffff81111561068257610681610393565b5b61068e84828501610620565b91505092915050565b7f4e487b7100000000000000000000000000000000000000000000000000000000600052602260045260246000fd5b600060028204905060018216806106de57607f821691505b6020821081036106f1576106f0610697565b5b50919050565b7f4e616d652073686f756c64206e6f7420626520656d7074790000000000000000600082015250565b600061072d60188361042e565b9150610738826106f7565b602082019050919050565b6000602082019050818103600083015261075c81610720565b9050919050565b7f5573657220616c72656164792072656769737465726564000000000000000000600082015250565b600061079960178361042e565b91506107a482610763565b602082019050919050565b600060208201905081810360008301526107c88161078c565b9050919050565b60008190508160005260206000209050919050565b60006020601f8301049050919050565b600082821b905092915050565b6000600883026108317fffffffffffffffffffffffffffffffffffffffffffffffffffffffffffffffff826107f4565b61083b86836107f4565b95508019841693508086168417925050509392505050565b6000819050919050565b600061087861087361086e846104c2565b610853565b6104c2565b9050919050565b6000819050919050565b6108928361085d565b6108a661089e8261087f565b848454610801565b825550505050565b600090565b6108bb6108ae565b6108c6818484610889565b505050565b5b818110156108ea576108df6000826108b3565b6001810190506108cc565b5050565b601f82111561092f57610900816107cf565b610909846107e4565b81016020851015610918578190505b61092c610924856107e4565b8301826108cb565b50505b505050565b600082821c905092915050565b600061095260001984600802610934565b1980831691505092915050565b600061096b8383610941565b9150826002028217905092915050565b61098482610423565b67ffffffffffffffff81111561099d5761099c610523565b5b6109a782546106c6565b6109b28282856108ee565b600060209050601f8311600181146109e557600084156109d3578287015190505b6109dd858261095f565b865550610a45565b601f1984166109f3866107cf565b60005b82811015610a1b578489015182556001820191506020850194506020810190506109f6565b86831015610a385784890151610a34601f891682610941565b8355505b6001600288020188555050505b505050505050565b60006040820190508181036000830152610a67818561047a565b9050610a7660208301846104b3565b939250505056fea2646970667358221220687f3b25ec848d352cc6ed1b5dd8daa60cb89293fd8e69da2889e90e61829f2764736f6c63430008120033",
  "linkReferences": {},
  "deployedLinkReferences": {}
}