{
  "_format": "hh-sol-artifact-1",
  "contractName": "SimpleContract",
  "sourceName": "contracts/SimpleContract.sol",
  "abi": [
    {
      "inputs": [
        {
          "internalType": "uint256",
          "name": "initialValue",
          "type": "uint256"
        }
      ],
      "stateMutability": "nonpayable",
      "type": "constructor"
    },
    {
      "inputs": [
        {
          "internalType": "uint256",
          "name": "newValue",
          "type": "uint256"
        }
      ],
      "name": "setValue",
      "outputs": [],
      "stateMutability": "nonpayable",
      "type": "function"
    },
    {
      "inputs": [],
      "name": "value",
      "outputs": [
        {
          "internalType": "uint256",
          "name": "",
          "type": "uint256"
        }
      ],
      "stateMutability": "view",
      "type": "function"
    }
  ],
  "bytecode": "0x608060405234801561001057600080fd5b506040516101e93803806101e98339818101604052810190610032919061007a565b80600081905550506100a7565b600080fd5b6000819050919050565b61005781610044565b811461006257600080fd5b50565b6000815190506100748161004e565b92915050565b6000602082840312156100905761008f61003f565b5b600061009e84828501610065565b91505092915050565b610133806100b66000396000f3fe6080604052348015600f57600080fd5b506004361060325760003560e01c80633fa4f24514603757806355241077146051575b600080fd5b603d6069565b604051604891906090565b60405180910390f35b606760048036038101906063919060d5565b606f565b005b60005481565b8060008190555050565b6000819050919050565b608a816079565b82525050565b600060208201905060a360008301846083565b92915050565b600080fd5b60b5816079565b811460bf57600080fd5b50565b60008135905060cf8160ae565b92915050565b60006020828403121560e85760e760a9565b5b600060f48482850160c2565b9150509291505056fea26469706673582212206f75714d10c05d42e70f14feaf1785124e84d6096cb201225e3c8fb4baeca9b864736f6c63430008120033",
  "linkReferences": {},
  "deployedLinkReferences": {}
}